{
	"data": {
		"bytecode": {
			"linkReferences": {},
			"object": "608060405234801561001057600080fd5b50611ad2806100206000396000f3fe608060405234801561001057600080fd5b50600436106100a95760003560e01c8063d39bbef011610071578063d39bbef014610168578063d568866c14610198578063d6d7d525146101c8578063e035ba52146101f9578063eeb8a8d314610217578063fc2a5b1d14610248576100a9565b80633938471f146100ae578063451931a1146100cc5780638ec828ed146100ea578063b4d1d7951461011a578063c699c4d614610138575b600080fd5b6100b6610268565b6040516100c3919061175a565b60405180910390f35b6100d4610280565b6040516100e19190611775565b60405180910390f35b61010460048036038101906100ff91906114ee565b610298565b6040516101119190611888565b60405180910390f35b610122610432565b60405161012f9190611888565b60405180910390f35b610152600480360381019061014d9190611431565b610438565b60405161015f91906117c6565b60405180910390f35b610182600480360381019061017d9190611431565b610478565b60405161018f9190611888565b60405180910390f35b6101b260048036038101906101ad9190611431565b6106e8565b6040516101bf91906117c6565b60405180910390f35b6101e260048036038101906101dd9190611431565b610728565b6040516101f0929190611731565b60405180910390f35b610201610ad7565b60405161020e9190611790565b60405180910390f35b610231600480360381019061022c9190611431565b610aef565b60405161023f929190611731565b60405180910390f35b610250610dd9565b60405161025f939291906118a3565b60405180910390f35b7354edab30a7134a16a54218ae64c73e1daf48a8fb81565b73453b5415fe883f15686a5ff2ac6ff35ca670262881565b60008073453b5415fe883f15686a5ff2ac6ff35ca670262873ffffffffffffffffffffffffffffffffffffffff16635a3d54936040518163ffffffff1660e01b815260040160206040518083038186803b1580156102f557600080fd5b505afa158015610309573d6000803e3d6000fd5b505050506040513d601f19601f8201168201806040525081019061032d9190611517565b9050600080600073453b5415fe883f15686a5ff2ac6ff35ca670262873ffffffffffffffffffffffffffffffffffffffff16630902f1ac6040518163ffffffff1660e01b815260040160606040518083038186803b15801561038e57600080fd5b505afa1580156103a2573d6000803e3d6000fd5b505050506040513d601f19601f820116820180604052508101906103c6919061149f565b9250925092508063ffffffff1686036103ff846dffffffffffffffffffffffffffff16846dffffffffffffffffffffffffffff16610e1f565b600001517bffffffffffffffffffffffffffffffffffffffffffffffffffffffff16028401935083945050505050919050565b61025881565b60606040518060400160405280600681526020017f57474c415a450000000000000000000000000000000000000000000000000000815250905092915050565b600080600073453b5415fe883f15686a5ff2ac6ff35ca670262873ffffffffffffffffffffffffffffffffffffffff16630902f1ac6040518163ffffffff1660e01b815260040160606040518083038186803b1580156104d757600080fd5b505afa1580156104eb573d6000803e3d6000fd5b505050506040513d601f19601f8201168201806040525081019061050f919061149f565b506dffffffffffffffffffffffffffff1691506dffffffffffffffffffffffffffff1691507380277a98bd53aa835ec4cb7aedf04ac8fbac5e3c73ffffffffffffffffffffffffffffffffffffffff166352108088633b9aca006040518263ffffffff1660e01b815260040161058591906117ab565b60206040518083038186803b15801561059d57600080fd5b505afa1580156105b1573d6000803e3d6000fd5b505050506040513d601f19601f820116820180604052508101906105d59190611517565b6106b67354edab30a7134a16a54218ae64c73e1daf48a8fb73ffffffffffffffffffffffffffffffffffffffff166350d25bcd6040518163ffffffff1660e01b815260040160206040518083038186803b15801561063257600080fd5b505afa158015610646573d6000803e3d6000fd5b505050506040513d601f19601f8201168201806040525081019061066a9190611476565b6106a884610689670de0b6b3a76400008861108490919063ffffffff16565b8161069057fe5b04670de0b6b3a764000061108490919063ffffffff16565b61108490919063ffffffff16565b816106bd57fe5b0476010b46c6cdd6e3e0828f4db456ff0c8ea0000000000000816106dd57fe5b049250505092915050565b60606040518060400160405280600b81526020017f57474c415a452054574150000000000000000000000000000000000000000000815250905092915050565b600080600042905060008060010160009054906101000a900463ffffffff1663ffffffff16141561079b5780600060010160006101000a81548163ffffffff021916908363ffffffff1602179055506107868163ffffffff16610298565b60008001819055506000809250925050610ad0565b60008060010160009054906101000a900463ffffffff16820390506102588163ffffffff16101561080e576001600060010160049054906101000a900471ffffffffffffffffffffffffffffffffffff168071ffffffffffffffffffffffffffffffffffff169050935093505050610ad0565b600061081f8363ffffffff16610298565b90507380277a98bd53aa835ec4cb7aedf04ac8fbac5e3c73ffffffffffffffffffffffffffffffffffffffff166352108088633b9aca006040518263ffffffff1660e01b815260040161087291906117ab565b60206040518083038186803b15801561088a57600080fd5b505afa15801561089e573d6000803e3d6000fd5b505050506040513d601f19601f820116820180604052508101906108c29190611517565b6109f77354edab30a7134a16a54218ae64c73e1daf48a8fb73ffffffffffffffffffffffffffffffffffffffff166350d25bcd6040518163ffffffff1660e01b815260040160206040518083038186803b15801561091f57600080fd5b505afa158015610933573d6000803e3d6000fd5b505050506040513d601f19601f820116820180604052508101906109579190611476565b6109e96109be6109b9670de0b6b3a764000060405180602001604052808a63ffffffff1660008001548b038161098957fe5b047bffffffffffffffffffffffffffffffffffffffffffffffffffffffff168152506110e690919063ffffffff16565b6111a6565b71ffffffffffffffffffffffffffffffffffff16670de0b6b3a764000061108490919063ffffffff16565b61108490919063ffffffff16565b816109fe57fe5b0476010b46c6cdd6e3e0828f4db456ff0c8ea000000000000081610a1e57fe5b04600060010160046101000a81548171ffffffffffffffffffffffffffffffffffff021916908371ffffffffffffffffffffffffffffffffffff16021790555082600060010160006101000a81548163ffffffff021916908363ffffffff1602179055508060008001819055506001600060010160049054906101000a900471ffffffffffffffffffffffffffffffffffff168071ffffffffffffffffffffffffffffffffffff169050945094505050505b9250929050565b7380277a98bd53aa835ec4cb7aedf04ac8fbac5e3c81565b600080600042905060008060010160009054906101000a900463ffffffff1663ffffffff161415610b27576000809250925050610dd2565b60008060010160009054906101000a900463ffffffff16820390506102588163ffffffff161015610b9a576001600060010160049054906101000a900471ffffffffffffffffffffffffffffffffffff168071ffffffffffffffffffffffffffffffffffff169050935093505050610dd2565b6000610bab8363ffffffff16610298565b905060007380277a98bd53aa835ec4cb7aedf04ac8fbac5e3c73ffffffffffffffffffffffffffffffffffffffff166352108088633b9aca006040518263ffffffff1660e01b8152600401610c0091906117ab565b60206040518083038186803b158015610c1857600080fd5b505afa158015610c2c573d6000803e3d6000fd5b505050506040513d601f19601f82011682018060405250810190610c509190611517565b610d857354edab30a7134a16a54218ae64c73e1daf48a8fb73ffffffffffffffffffffffffffffffffffffffff166350d25bcd6040518163ffffffff1660e01b815260040160206040518083038186803b158015610cad57600080fd5b505afa158015610cc1573d6000803e3d6000fd5b505050506040513d601f19601f82011682018060405250810190610ce59190611476565b610d77610d4c610d47670de0b6b3a764000060405180602001604052808b63ffffffff1660008001548c0381610d1757fe5b047bffffffffffffffffffffffffffffffffffffffffffffffffffffffff168152506110e690919063ffffffff16565b6111a6565b71ffffffffffffffffffffffffffffffffffff16670de0b6b3a764000061108490919063ffffffff16565b61108490919063ffffffff16565b81610d8c57fe5b0476010b46c6cdd6e3e0828f4db456ff0c8ea000000000000081610dac57fe5b0490506001818071ffffffffffffffffffffffffffffffffffff16905095509550505050505b9250929050565b60008060000154908060010160009054906101000a900463ffffffff16908060010160049054906101000a900471ffffffffffffffffffffffffffffffffffff16905083565b610e2761133a565b60008211610e6a576040517f08c379a0000000000000000000000000000000000000000000000000000000008152600401610e6190611848565b60405180910390fd5b6000831415610ea857604051806020016040528060007bffffffffffffffffffffffffffffffffffffffffffffffffffffffff16815250905061107e565b7fffffffffffffffffffffffffffffffffffffffffffffffffffffffffffffffff71ffffffffffffffffffffffffffffffffffff168311610fae57600082607060ff1685901b81610ef557fe5b0490507fffffffffffffffffffffffffffffffffffffffffffffffffffffffffffffffff7bffffffffffffffffffffffffffffffffffffffffffffffffffffffff16811115610f79576040517f08c379a0000000000000000000000000000000000000000000000000000000008152600401610f7090611828565b60405180910390fd5b6040518060200160405280827bffffffffffffffffffffffffffffffffffffffffffffffffffffffff1681525091505061107e565b6000610fca846e010000000000000000000000000000856111bb565b90507fffffffffffffffffffffffffffffffffffffffffffffffffffffffffffffffff7bffffffffffffffffffffffffffffffffffffffffffffffffffffffff1681111561104d576040517f08c379a000000000000000000000000000000000000000000000000000000000815260040161104490611828565b60405180910390fd5b6040518060200160405280827bffffffffffffffffffffffffffffffffffffffffffffffffffffffff168152509150505b92915050565b6000808214806110a1575082828385029250828161109e57fe5b04145b6110e0576040517f08c379a00000000000000000000000000000000000000000000000000000000081526004016110d790611868565b60405180910390fd5b92915050565b6110ee61136b565b60008083148061114f575083600001517bffffffffffffffffffffffffffffffffffffffffffffffffffffffff16838486600001517bffffffffffffffffffffffffffffffffffffffffffffffffffffffff16029250828161114c57fe5b04145b61118e576040517f08c379a0000000000000000000000000000000000000000000000000000000008152600401611185906117e8565b60405180910390fd5b60405180602001604052808281525091505092915050565b6000607060ff168260000151901c9050919050565b60008060006111ca868661124a565b91509150600084806111d857fe5b8688099050828111156111ec576001820391505b8083039250848210611233576040517f08c379a000000000000000000000000000000000000000000000000000000000815260040161122a90611808565b60405180910390fd5b61123e83838761129d565b93505050509392505050565b60008060007fffffffffffffffffffffffffffffffffffffffffffffffffffffffffffffffff8061127757fe5b84860990508385029250828103915082811015611295576001820391505b509250929050565b60008082600003831690508083816112b157fe5b0492508085816112bd57fe5b04945060018182600003816112ce57fe5b04018402850194506000600190508084026002038102905080840260020381029050808402600203810290508084026002038102905080840260020381029050808402600203810290508084026002038102905080840260020381029050808602925050509392505050565b604051806020016040528060007bffffffffffffffffffffffffffffffffffffffffffffffffffffffff1681525090565b6040518060200160405280600081525090565b60008083601f84011261139057600080fd5b8235905067ffffffffffffffff8111156113a957600080fd5b6020830191508360018202830111156113c157600080fd5b9250929050565b6000815190506113d781611a40565b92915050565b6000815190506113ec81611a57565b92915050565b60008135905061140181611a6e565b92915050565b60008151905061141681611a6e565b92915050565b60008151905061142b81611a85565b92915050565b6000806020838503121561144457600080fd5b600083013567ffffffffffffffff81111561145e57600080fd5b61146a8582860161137e565b92509250509250929050565b60006020828403121561148857600080fd5b6000611496848285016113c8565b91505092915050565b6000806000606084860312156114b457600080fd5b60006114c2868287016113dd565b93505060206114d3868287016113dd565b92505060406114e48682870161141c565b9150509250925092565b60006020828403121561150057600080fd5b600061150e848285016113f2565b91505092915050565b60006020828403121561152957600080fd5b600061153784828501611407565b91505092915050565b611549816118f6565b82525050565b6115588161197e565b82525050565b611567816119a2565b82525050565b611576816119c6565b82525050565b611585816119ea565b82525050565b6000611596826118da565b6115a081856118e5565b93506115b08185602086016119fc565b6115b981611a2f565b840191505092915050565b60006115d16019836118e5565b91507f4669786564506f696e743a3a6d756c3a206f766572666c6f77000000000000006000830152602082019050919050565b6000611611601a836118e5565b91507f46756c6c4d6174683a3a6d756c4469763a206f766572666c6f770000000000006000830152602082019050919050565b6000611651601e836118e5565b91507f4669786564506f696e743a3a6672616374696f6e3a206f766572666c6f7700006000830152602082019050919050565b6000611691601e836118e5565b91507f4669786564506f696e743a3a6672616374696f6e3a20646976206279203000006000830152602082019050919050565b60006116d16018836118e5565b91507f426f72696e674d6174683a204d756c204f766572666c6f7700000000000000006000830152602082019050919050565b61170d81611926565b82525050565b61171c81611964565b82525050565b61172b8161196e565b82525050565b60006040820190506117466000830185611540565b6117536020830184611713565b9392505050565b600060208201905061176f600083018461154f565b92915050565b600060208201905061178a600083018461155e565b92915050565b60006020820190506117a5600083018461156d565b92915050565b60006020820190506117c0600083018461157c565b92915050565b600060208201905081810360008301526117e0818461158b565b905092915050565b60006020820190508181036000830152611801816115c4565b9050919050565b6000602082019050818103600083015261182181611604565b9050919050565b6000602082019050818103600083015261184181611644565b9050919050565b6000602082019050818103600083015261186181611684565b9050919050565b60006020820190508181036000830152611881816116c4565b9050919050565b600060208201905061189d6000830184611713565b92915050565b60006060820190506118b86000830186611713565b6118c56020830185611722565b6118d26040830184611704565b949350505050565b600081519050919050565b600082825260208201905092915050565b60008115159050919050565b6000819050919050565b60006dffffffffffffffffffffffffffff82169050919050565b600071ffffffffffffffffffffffffffffffffffff82169050919050565b600073ffffffffffffffffffffffffffffffffffffffff82169050919050565b6000819050919050565b600063ffffffff82169050919050565b600061198982611990565b9050919050565b600061199b82611944565b9050919050565b60006119ad826119b4565b9050919050565b60006119bf82611944565b9050919050565b60006119d1826119d8565b9050919050565b60006119e382611944565b9050919050565b60006119f582611964565b9050919050565b60005b83811015611a1a5780820151818401526020810190506119ff565b83811115611a29576000848401525b50505050565b6000601f19601f8301169050919050565b611a4981611902565b8114611a5457600080fd5b50565b611a608161190c565b8114611a6b57600080fd5b50565b611a7781611964565b8114611a8257600080fd5b50565b611a8e8161196e565b8114611a9957600080fd5b5056fea26469706673582212206ff2a5b22bbbd75c5dc9bbc138a72a8acd72bcd2a15d15428e039f42efaf16fc64736f6c634300060c0033",
			"opcodes": "PUSH1 0x80 PUSH1 0x40 MSTORE CALLVALUE DUP1 ISZERO PUSH2 0x10 JUMPI PUSH1 0x0 DUP1 REVERT JUMPDEST POP PUSH2 0x1AD2 DUP1 PUSH2 0x20 PUSH1 0x0 CODECOPY PUSH1 0x0 RETURN INVALID PUSH1 0x80 PUSH1 0x40 MSTORE CALLVALUE DUP1 ISZERO PUSH2 0x10 JUMPI PUSH1 0x0 DUP1 REVERT JUMPDEST POP PUSH1 0x4 CALLDATASIZE LT PUSH2 0xA9 JUMPI PUSH1 0x0 CALLDATALOAD PUSH1 0xE0 SHR DUP1 PUSH4 0xD39BBEF0 GT PUSH2 0x71 JUMPI DUP1 PUSH4 0xD39BBEF0 EQ PUSH2 0x168 JUMPI DUP1 PUSH4 0xD568866C EQ PUSH2 0x198 JUMPI DUP1 PUSH4 0xD6D7D525 EQ PUSH2 0x1C8 JUMPI DUP1 PUSH4 0xE035BA52 EQ PUSH2 0x1F9 JUMPI DUP1 PUSH4 0xEEB8A8D3 EQ PUSH2 0x217 JUMPI DUP1 PUSH4 0xFC2A5B1D EQ PUSH2 0x248 JUMPI PUSH2 0xA9 JUMP JUMPDEST DUP1 PUSH4 0x3938471F EQ PUSH2 0xAE JUMPI DUP1 PUSH4 0x451931A1 EQ PUSH2 0xCC JUMPI DUP1 PUSH4 0x8EC828ED EQ PUSH2 0xEA JUMPI DUP1 PUSH4 0xB4D1D795 EQ PUSH2 0x11A JUMPI DUP1 PUSH4 0xC699C4D6 EQ PUSH2 0x138 JUMPI JUMPDEST PUSH1 0x0 DUP1 REVERT JUMPDEST PUSH2 0xB6 PUSH2 0x268 JUMP JUMPDEST PUSH1 0x40 MLOAD PUSH2 0xC3 SWAP2 SWAP1 PUSH2 0x175A JUMP JUMPDEST PUSH1 0x40 MLOAD DUP1 SWAP2 SUB SWAP1 RETURN JUMPDEST PUSH2 0xD4 PUSH2 0x280 JUMP JUMPDEST PUSH1 0x40 MLOAD PUSH2 0xE1 SWAP2 SWAP1 PUSH2 0x1775 JUMP JUMPDEST PUSH1 0x40 MLOAD DUP1 SWAP2 SUB SWAP1 RETURN JUMPDEST PUSH2 0x104 PUSH1 0x4 DUP1 CALLDATASIZE SUB DUP2 ADD SWAP1 PUSH2 0xFF SWAP2 SWAP1 PUSH2 0x14EE JUMP JUMPDEST PUSH2 0x298 JUMP JUMPDEST PUSH1 0x40 MLOAD PUSH2 0x111 SWAP2 SWAP1 PUSH2 0x1888 JUMP JUMPDEST PUSH1 0x40 MLOAD DUP1 SWAP2 SUB SWAP1 RETURN JUMPDEST PUSH2 0x122 PUSH2 0x432 JUMP JUMPDEST PUSH1 0x40 MLOAD PUSH2 0x12F SWAP2 SWAP1 PUSH2 0x1888 JUMP JUMPDEST PUSH1 0x40 MLOAD DUP1 SWAP2 SUB SWAP1 RETURN JUMPDEST PUSH2 0x152 PUSH1 0x4 DUP1 CALLDATASIZE SUB DUP2 ADD SWAP1 PUSH2 0x14D SWAP2 SWAP1 PUSH2 0x1431 JUMP JUMPDEST PUSH2 0x438 JUMP JUMPDEST PUSH1 0x40 MLOAD PUSH2 0x15F SWAP2 SWAP1 PUSH2 0x17C6 JUMP JUMPDEST PUSH1 0x40 MLOAD DUP1 SWAP2 SUB SWAP1 RETURN JUMPDEST PUSH2 0x182 PUSH1 0x4 DUP1 CALLDATASIZE SUB DUP2 ADD SWAP1 PUSH2 0x17D SWAP2 SWAP1 PUSH2 0x1431 JUMP JUMPDEST PUSH2 0x478 JUMP JUMPDEST PUSH1 0x40 MLOAD PUSH2 0x18F SWAP2 SWAP1 PUSH2 0x1888 JUMP JUMPDEST PUSH1 0x40 MLOAD DUP1 SWAP2 SUB SWAP1 RETURN JUMPDEST PUSH2 0x1B2 PUSH1 0x4 DUP1 CALLDATASIZE SUB DUP2 ADD SWAP1 PUSH2 0x1AD SWAP2 SWAP1 PUSH2 0x1431 JUMP JUMPDEST PUSH2 0x6E8 JUMP JUMPDEST PUSH1 0x40 MLOAD PUSH2 0x1BF SWAP2 SWAP1 PUSH2 0x17C6 JUMP JUMPDEST PUSH1 0x40 MLOAD DUP1 SWAP2 SUB SWAP1 RETURN JUMPDEST PUSH2 0x1E2 PUSH1 0x4 DUP1 CALLDATASIZE SUB DUP2 ADD SWAP1 PUSH2 0x1DD SWAP2 SWAP1 PUSH2 0x1431 JUMP JUMPDEST PUSH2 0x728 JUMP JUMPDEST PUSH1 0x40 MLOAD PUSH2 0x1F0 SWAP3 SWAP2 SWAP1 PUSH2 0x1731 JUMP JUMPDEST PUSH1 0x40 MLOAD DUP1 SWAP2 SUB SWAP1 RETURN JUMPDEST PUSH2 0x201 PUSH2 0xAD7 JUMP JUMPDEST PUSH1 0x40 MLOAD PUSH2 0x20E SWAP2 SWAP1 PUSH2 0x1790 JUMP JUMPDEST PUSH1 0x40 MLOAD DUP1 SWAP2 SUB SWAP1 RETURN JUMPDEST PUSH2 0x231 PUSH1 0x4 DUP1 CALLDATASIZE SUB DUP2 ADD SWAP1 PUSH2 0x22C SWAP2 SWAP1 PUSH2 0x1431 JUMP JUMPDEST PUSH2 0xAEF JUMP JUMPDEST PUSH1 0x40 MLOAD PUSH2 0x23F SWAP3 SWAP2 SWAP1 PUSH2 0x1731 JUMP JUMPDEST PUSH1 0x40 MLOAD DUP1 SWAP2 SUB SWAP1 RETURN JUMPDEST PUSH2 0x250 PUSH2 0xDD9 JUMP JUMPDEST PUSH1 0x40 MLOAD PUSH2 0x25F SWAP4 SWAP3 SWAP2 SWAP1 PUSH2 0x18A3 JUMP JUMPDEST PUSH1 0x40 MLOAD DUP1 SWAP2 SUB SWAP1 RETURN JUMPDEST PUSH20 0x54EDAB30A7134A16A54218AE64C73E1DAF48A8FB DUP2 JUMP JUMPDEST PUSH20 0x453B5415FE883F15686A5FF2AC6FF35CA6702628 DUP2 JUMP JUMPDEST PUSH1 0x0 DUP1 PUSH20 0x453B5415FE883F15686A5FF2AC6FF35CA6702628 PUSH20 0xFFFFFFFFFFFFFFFFFFFFFFFFFFFFFFFFFFFFFFFF AND PUSH4 0x5A3D5493 PUSH1 0x40 MLOAD DUP2 PUSH4 0xFFFFFFFF AND PUSH1 0xE0 SHL DUP2 MSTORE PUSH1 0x4 ADD PUSH1 0x20 PUSH1 0x40 MLOAD DUP1 DUP4 SUB DUP2 DUP7 DUP1 EXTCODESIZE ISZERO DUP1 ISZERO PUSH2 0x2F5 JUMPI PUSH1 0x0 DUP1 REVERT JUMPDEST POP GAS STATICCALL ISZERO DUP1 ISZERO PUSH2 0x309 JUMPI RETURNDATASIZE PUSH1 0x0 DUP1 RETURNDATACOPY RETURNDATASIZE PUSH1 0x0 REVERT JUMPDEST POP POP POP POP PUSH1 0x40 MLOAD RETURNDATASIZE PUSH1 0x1F NOT PUSH1 0x1F DUP3 ADD AND DUP3 ADD DUP1 PUSH1 0x40 MSTORE POP DUP2 ADD SWAP1 PUSH2 0x32D SWAP2 SWAP1 PUSH2 0x1517 JUMP JUMPDEST SWAP1 POP PUSH1 0x0 DUP1 PUSH1 0x0 PUSH20 0x453B5415FE883F15686A5FF2AC6FF35CA6702628 PUSH20 0xFFFFFFFFFFFFFFFFFFFFFFFFFFFFFFFFFFFFFFFF AND PUSH4 0x902F1AC PUSH1 0x40 MLOAD DUP2 PUSH4 0xFFFFFFFF AND PUSH1 0xE0 SHL DUP2 MSTORE PUSH1 0x4 ADD PUSH1 0x60 PUSH1 0x40 MLOAD DUP1 DUP4 SUB DUP2 DUP7 DUP1 EXTCODESIZE ISZERO DUP1 ISZERO PUSH2 0x38E JUMPI PUSH1 0x0 DUP1 REVERT JUMPDEST POP GAS STATICCALL ISZERO DUP1 ISZERO PUSH2 0x3A2 JUMPI RETURNDATASIZE PUSH1 0x0 DUP1 RETURNDATACOPY RETURNDATASIZE PUSH1 0x0 REVERT JUMPDEST POP POP POP POP PUSH1 0x40 MLOAD RETURNDATASIZE PUSH1 0x1F NOT PUSH1 0x1F DUP3 ADD AND DUP3 ADD DUP1 PUSH1 0x40 MSTORE POP DUP2 ADD SWAP1 PUSH2 0x3C6 SWAP2 SWAP1 PUSH2 0x149F JUMP JUMPDEST SWAP3 POP SWAP3 POP SWAP3 POP DUP1 PUSH4 0xFFFFFFFF AND DUP7 SUB PUSH2 0x3FF DUP5 PUSH14 0xFFFFFFFFFFFFFFFFFFFFFFFFFFFF AND DUP5 PUSH14 0xFFFFFFFFFFFFFFFFFFFFFFFFFFFF AND PUSH2 0xE1F JUMP JUMPDEST PUSH1 0x0 ADD MLOAD PUSH28 0xFFFFFFFFFFFFFFFFFFFFFFFFFFFFFFFFFFFFFFFFFFFFFFFFFFFFFFFF AND MUL DUP5 ADD SWAP4 POP DUP4 SWAP5 POP POP POP POP POP SWAP2 SWAP1 POP JUMP JUMPDEST PUSH2 0x258 DUP2 JUMP JUMPDEST PUSH1 0x60 PUSH1 0x40 MLOAD DUP1 PUSH1 0x40 ADD PUSH1 0x40 MSTORE DUP1 PUSH1 0x6 DUP2 MSTORE PUSH1 0x20 ADD PUSH32 0x57474C415A450000000000000000000000000000000000000000000000000000 DUP2 MSTORE POP SWAP1 POP SWAP3 SWAP2 POP POP JUMP JUMPDEST PUSH1 0x0 DUP1 PUSH1 0x0 PUSH20 0x453B5415FE883F15686A5FF2AC6FF35CA6702628 PUSH20 0xFFFFFFFFFFFFFFFFFFFFFFFFFFFFFFFFFFFFFFFF AND PUSH4 0x902F1AC PUSH1 0x40 MLOAD DUP2 PUSH4 0xFFFFFFFF AND PUSH1 0xE0 SHL DUP2 MSTORE PUSH1 0x4 ADD PUSH1 0x60 PUSH1 0x40 MLOAD DUP1 DUP4 SUB DUP2 DUP7 DUP1 EXTCODESIZE ISZERO DUP1 ISZERO PUSH2 0x4D7 JUMPI PUSH1 0x0 DUP1 REVERT JUMPDEST POP GAS STATICCALL ISZERO DUP1 ISZERO PUSH2 0x4EB JUMPI RETURNDATASIZE PUSH1 0x0 DUP1 RETURNDATACOPY RETURNDATASIZE PUSH1 0x0 REVERT JUMPDEST POP POP POP POP PUSH1 0x40 MLOAD RETURNDATASIZE PUSH1 0x1F NOT PUSH1 0x1F DUP3 ADD AND DUP3 ADD DUP1 PUSH1 0x40 MSTORE POP DUP2 ADD SWAP1 PUSH2 0x50F SWAP2 SWAP1 PUSH2 0x149F JUMP JUMPDEST POP PUSH14 0xFFFFFFFFFFFFFFFFFFFFFFFFFFFF AND SWAP2 POP PUSH14 0xFFFFFFFFFFFFFFFFFFFFFFFFFFFF AND SWAP2 POP PUSH20 0x80277A98BD53AA835EC4CB7AEDF04AC8FBAC5E3C PUSH20 0xFFFFFFFFFFFFFFFFFFFFFFFFFFFFFFFFFFFFFFFF AND PUSH4 0x52108088 PUSH4 0x3B9ACA00 PUSH1 0x40 MLOAD DUP3 PUSH4 0xFFFFFFFF AND PUSH1 0xE0 SHL DUP2 MSTORE PUSH1 0x4 ADD PUSH2 0x585 SWAP2 SWAP1 PUSH2 0x17AB JUMP JUMPDEST PUSH1 0x20 PUSH1 0x40 MLOAD DUP1 DUP4 SUB DUP2 DUP7 DUP1 EXTCODESIZE ISZERO DUP1 ISZERO PUSH2 0x59D JUMPI PUSH1 0x0 DUP1 REVERT JUMPDEST POP GAS STATICCALL ISZERO DUP1 ISZERO PUSH2 0x5B1 JUMPI RETURNDATASIZE PUSH1 0x0 DUP1 RETURNDATACOPY RETURNDATASIZE PUSH1 0x0 REVERT JUMPDEST POP POP POP POP PUSH1 0x40 MLOAD RETURNDATASIZE PUSH1 0x1F NOT PUSH1 0x1F DUP3 ADD AND DUP3 ADD DUP1 PUSH1 0x40 MSTORE POP DUP2 ADD SWAP1 PUSH2 0x5D5 SWAP2 SWAP1 PUSH2 0x1517 JUMP JUMPDEST PUSH2 0x6B6 PUSH20 0x54EDAB30A7134A16A54218AE64C73E1DAF48A8FB PUSH20 0xFFFFFFFFFFFFFFFFFFFFFFFFFFFFFFFFFFFFFFFF AND PUSH4 0x50D25BCD PUSH1 0x40 MLOAD DUP2 PUSH4 0xFFFFFFFF AND PUSH1 0xE0 SHL DUP2 MSTORE PUSH1 0x4 ADD PUSH1 0x20 PUSH1 0x40 MLOAD DUP1 DUP4 SUB DUP2 DUP7 DUP1 EXTCODESIZE ISZERO DUP1 ISZERO PUSH2 0x632 JUMPI PUSH1 0x0 DUP1 REVERT JUMPDEST POP GAS STATICCALL ISZERO DUP1 ISZERO PUSH2 0x646 JUMPI RETURNDATASIZE PUSH1 0x0 DUP1 RETURNDATACOPY RETURNDATASIZE PUSH1 0x0 REVERT JUMPDEST POP POP POP POP PUSH1 0x40 MLOAD RETURNDATASIZE PUSH1 0x1F NOT PUSH1 0x1F DUP3 ADD AND DUP3 ADD DUP1 PUSH1 0x40 MSTORE POP DUP2 ADD SWAP1 PUSH2 0x66A SWAP2 SWAP1 PUSH2 0x1476 JUMP JUMPDEST PUSH2 0x6A8 DUP5 PUSH2 0x689 PUSH8 0xDE0B6B3A7640000 DUP9 PUSH2 0x1084 SWAP1 SWAP2 SWAP1 PUSH4 0xFFFFFFFF AND JUMP JUMPDEST DUP2 PUSH2 0x690 JUMPI INVALID JUMPDEST DIV PUSH8 0xDE0B6B3A7640000 PUSH2 0x1084 SWAP1 SWAP2 SWAP1 PUSH4 0xFFFFFFFF AND JUMP JUMPDEST PUSH2 0x1084 SWAP1 SWAP2 SWAP1 PUSH4 0xFFFFFFFF AND JUMP JUMPDEST DUP2 PUSH2 0x6BD JUMPI INVALID JUMPDEST DIV PUSH23 0x10B46C6CDD6E3E0828F4DB456FF0C8EA0000000000000 DUP2 PUSH2 0x6DD JUMPI INVALID JUMPDEST DIV SWAP3 POP POP POP SWAP3 SWAP2 POP POP JUMP JUMPDEST PUSH1 0x60 PUSH1 0x40 MLOAD DUP1 PUSH1 0x40 ADD PUSH1 0x40 MSTORE DUP1 PUSH1 0xB DUP2 MSTORE PUSH1 0x20 ADD PUSH32 0x57474C415A452054574150000000000000000000000000000000000000000000 DUP2 MSTORE POP SWAP1 POP SWAP3 SWAP2 POP POP JUMP JUMPDEST PUSH1 0x0 DUP1 PUSH1 0x0 TIMESTAMP SWAP1 POP PUSH1 0x0 DUP1 PUSH1 0x1 ADD PUSH1 0x0 SWAP1 SLOAD SWAP1 PUSH2 0x100 EXP SWAP1 DIV PUSH4 0xFFFFFFFF AND PUSH4 0xFFFFFFFF AND EQ ISZERO PUSH2 0x79B JUMPI DUP1 PUSH1 0x0 PUSH1 0x1 ADD PUSH1 0x0 PUSH2 0x100 EXP DUP2 SLOAD DUP2 PUSH4 0xFFFFFFFF MUL NOT AND SWAP1 DUP4 PUSH4 0xFFFFFFFF AND MUL OR SWAP1 SSTORE POP PUSH2 0x786 DUP2 PUSH4 0xFFFFFFFF AND PUSH2 0x298 JUMP JUMPDEST PUSH1 0x0 DUP1 ADD DUP2 SWAP1 SSTORE POP PUSH1 0x0 DUP1 SWAP3 POP SWAP3 POP POP PUSH2 0xAD0 JUMP JUMPDEST PUSH1 0x0 DUP1 PUSH1 0x1 ADD PUSH1 0x0 SWAP1 SLOAD SWAP1 PUSH2 0x100 EXP SWAP1 DIV PUSH4 0xFFFFFFFF AND DUP3 SUB SWAP1 POP PUSH2 0x258 DUP2 PUSH4 0xFFFFFFFF AND LT ISZERO PUSH2 0x80E JUMPI PUSH1 0x1 PUSH1 0x0 PUSH1 0x1 ADD PUSH1 0x4 SWAP1 SLOAD SWAP1 PUSH2 0x100 EXP SWAP1 DIV PUSH18 0xFFFFFFFFFFFFFFFFFFFFFFFFFFFFFFFFFFFF AND DUP1 PUSH18 0xFFFFFFFFFFFFFFFFFFFFFFFFFFFFFFFFFFFF AND SWAP1 POP SWAP4 POP SWAP4 POP POP POP PUSH2 0xAD0 JUMP JUMPDEST PUSH1 0x0 PUSH2 0x81F DUP4 PUSH4 0xFFFFFFFF AND PUSH2 0x298 JUMP JUMPDEST SWAP1 POP PUSH20 0x80277A98BD53AA835EC4CB7AEDF04AC8FBAC5E3C PUSH20 0xFFFFFFFFFFFFFFFFFFFFFFFFFFFFFFFFFFFFFFFF AND PUSH4 0x52108088 PUSH4 0x3B9ACA00 PUSH1 0x40 MLOAD DUP3 PUSH4 0xFFFFFFFF AND PUSH1 0xE0 SHL DUP2 MSTORE PUSH1 0x4 ADD PUSH2 0x872 SWAP2 SWAP1 PUSH2 0x17AB JUMP JUMPDEST PUSH1 0x20 PUSH1 0x40 MLOAD DUP1 DUP4 SUB DUP2 DUP7 DUP1 EXTCODESIZE ISZERO DUP1 ISZERO PUSH2 0x88A JUMPI PUSH1 0x0 DUP1 REVERT JUMPDEST POP GAS STATICCALL ISZERO DUP1 ISZERO PUSH2 0x89E JUMPI RETURNDATASIZE PUSH1 0x0 DUP1 RETURNDATACOPY RETURNDATASIZE PUSH1 0x0 REVERT JUMPDEST POP POP POP POP PUSH1 0x40 MLOAD RETURNDATASIZE PUSH1 0x1F NOT PUSH1 0x1F DUP3 ADD AND DUP3 ADD DUP1 PUSH1 0x40 MSTORE POP DUP2 ADD SWAP1 PUSH2 0x8C2 SWAP2 SWAP1 PUSH2 0x1517 JUMP JUMPDEST PUSH2 0x9F7 PUSH20 0x54EDAB30A7134A16A54218AE64C73E1DAF48A8FB PUSH20 0xFFFFFFFFFFFFFFFFFFFFFFFFFFFFFFFFFFFFFFFF AND PUSH4 0x50D25BCD PUSH1 0x40 MLOAD DUP2 PUSH4 0xFFFFFFFF AND PUSH1 0xE0 SHL DUP2 MSTORE PUSH1 0x4 ADD PUSH1 0x20 PUSH1 0x40 MLOAD DUP1 DUP4 SUB DUP2 DUP7 DUP1 EXTCODESIZE ISZERO DUP1 ISZERO PUSH2 0x91F JUMPI PUSH1 0x0 DUP1 REVERT JUMPDEST POP GAS STATICCALL ISZERO DUP1 ISZERO PUSH2 0x933 JUMPI RETURNDATASIZE PUSH1 0x0 DUP1 RETURNDATACOPY RETURNDATASIZE PUSH1 0x0 REVERT JUMPDEST POP POP POP POP PUSH1 0x40 MLOAD RETURNDATASIZE PUSH1 0x1F NOT PUSH1 0x1F DUP3 ADD AND DUP3 ADD DUP1 PUSH1 0x40 MSTORE POP DUP2 ADD SWAP1 PUSH2 0x957 SWAP2 SWAP1 PUSH2 0x1476 JUMP JUMPDEST PUSH2 0x9E9 PUSH2 0x9BE PUSH2 0x9B9 PUSH8 0xDE0B6B3A7640000 PUSH1 0x40 MLOAD DUP1 PUSH1 0x20 ADD PUSH1 0x40 MSTORE DUP1 DUP11 PUSH4 0xFFFFFFFF AND PUSH1 0x0 DUP1 ADD SLOAD DUP12 SUB DUP2 PUSH2 0x989 JUMPI INVALID JUMPDEST DIV PUSH28 0xFFFFFFFFFFFFFFFFFFFFFFFFFFFFFFFFFFFFFFFFFFFFFFFFFFFFFFFF AND DUP2 MSTORE POP PUSH2 0x10E6 SWAP1 SWAP2 SWAP1 PUSH4 0xFFFFFFFF AND JUMP JUMPDEST PUSH2 0x11A6 JUMP JUMPDEST PUSH18 0xFFFFFFFFFFFFFFFFFFFFFFFFFFFFFFFFFFFF AND PUSH8 0xDE0B6B3A7640000 PUSH2 0x1084 SWAP1 SWAP2 SWAP1 PUSH4 0xFFFFFFFF AND JUMP JUMPDEST PUSH2 0x1084 SWAP1 SWAP2 SWAP1 PUSH4 0xFFFFFFFF AND JUMP JUMPDEST DUP2 PUSH2 0x9FE JUMPI INVALID JUMPDEST DIV PUSH23 0x10B46C6CDD6E3E0828F4DB456FF0C8EA0000000000000 DUP2 PUSH2 0xA1E JUMPI INVALID JUMPDEST DIV PUSH1 0x0 PUSH1 0x1 ADD PUSH1 0x4 PUSH2 0x100 EXP DUP2 SLOAD DUP2 PUSH18 0xFFFFFFFFFFFFFFFFFFFFFFFFFFFFFFFFFFFF MUL NOT AND SWAP1 DUP4 PUSH18 0xFFFFFFFFFFFFFFFFFFFFFFFFFFFFFFFFFFFF AND MUL OR SWAP1 SSTORE POP DUP3 PUSH1 0x0 PUSH1 0x1 ADD PUSH1 0x0 PUSH2 0x100 EXP DUP2 SLOAD DUP2 PUSH4 0xFFFFFFFF MUL NOT AND SWAP1 DUP4 PUSH4 0xFFFFFFFF AND MUL OR SWAP1 SSTORE POP DUP1 PUSH1 0x0 DUP1 ADD DUP2 SWAP1 SSTORE POP PUSH1 0x1 PUSH1 0x0 PUSH1 0x1 ADD PUSH1 0x4 SWAP1 SLOAD SWAP1 PUSH2 0x100 EXP SWAP1 DIV PUSH18 0xFFFFFFFFFFFFFFFFFFFFFFFFFFFFFFFFFFFF AND DUP1 PUSH18 0xFFFFFFFFFFFFFFFFFFFFFFFFFFFFFFFFFFFF AND SWAP1 POP SWAP5 POP SWAP5 POP POP POP POP JUMPDEST SWAP3 POP SWAP3 SWAP1 POP JUMP JUMPDEST PUSH20 0x80277A98BD53AA835EC4CB7AEDF04AC8FBAC5E3C DUP2 JUMP JUMPDEST PUSH1 0x0 DUP1 PUSH1 0x0 TIMESTAMP SWAP1 POP PUSH1 0x0 DUP1 PUSH1 0x1 ADD PUSH1 0x0 SWAP1 SLOAD SWAP1 PUSH2 0x100 EXP SWAP1 DIV PUSH4 0xFFFFFFFF AND PUSH4 0xFFFFFFFF AND EQ ISZERO PUSH2 0xB27 JUMPI PUSH1 0x0 DUP1 SWAP3 POP SWAP3 POP POP PUSH2 0xDD2 JUMP JUMPDEST PUSH1 0x0 DUP1 PUSH1 0x1 ADD PUSH1 0x0 SWAP1 SLOAD SWAP1 PUSH2 0x100 EXP SWAP1 DIV PUSH4 0xFFFFFFFF AND DUP3 SUB SWAP1 POP PUSH2 0x258 DUP2 PUSH4 0xFFFFFFFF AND LT ISZERO PUSH2 0xB9A JUMPI PUSH1 0x1 PUSH1 0x0 PUSH1 0x1 ADD PUSH1 0x4 SWAP1 SLOAD SWAP1 PUSH2 0x100 EXP SWAP1 DIV PUSH18 0xFFFFFFFFFFFFFFFFFFFFFFFFFFFFFFFFFFFF AND DUP1 PUSH18 0xFFFFFFFFFFFFFFFFFFFFFFFFFFFFFFFFFFFF AND SWAP1 POP SWAP4 POP SWAP4 POP POP POP PUSH2 0xDD2 JUMP JUMPDEST PUSH1 0x0 PUSH2 0xBAB DUP4 PUSH4 0xFFFFFFFF AND PUSH2 0x298 JUMP JUMPDEST SWAP1 POP PUSH1 0x0 PUSH20 0x80277A98BD53AA835EC4CB7AEDF04AC8FBAC5E3C PUSH20 0xFFFFFFFFFFFFFFFFFFFFFFFFFFFFFFFFFFFFFFFF AND PUSH4 0x52108088 PUSH4 0x3B9ACA00 PUSH1 0x40 MLOAD DUP3 PUSH4 0xFFFFFFFF AND PUSH1 0xE0 SHL DUP2 MSTORE PUSH1 0x4 ADD PUSH2 0xC00 SWAP2 SWAP1 PUSH2 0x17AB JUMP JUMPDEST PUSH1 0x20 PUSH1 0x40 MLOAD DUP1 DUP4 SUB DUP2 DUP7 DUP1 EXTCODESIZE ISZERO DUP1 ISZERO PUSH2 0xC18 JUMPI PUSH1 0x0 DUP1 REVERT JUMPDEST POP GAS STATICCALL ISZERO DUP1 ISZERO PUSH2 0xC2C JUMPI RETURNDATASIZE PUSH1 0x0 DUP1 RETURNDATACOPY RETURNDATASIZE PUSH1 0x0 REVERT JUMPDEST POP POP POP POP PUSH1 0x40 MLOAD RETURNDATASIZE PUSH1 0x1F NOT PUSH1 0x1F DUP3 ADD AND DUP3 ADD DUP1 PUSH1 0x40 MSTORE POP DUP2 ADD SWAP1 PUSH2 0xC50 SWAP2 SWAP1 PUSH2 0x1517 JUMP JUMPDEST PUSH2 0xD85 PUSH20 0x54EDAB30A7134A16A54218AE64C73E1DAF48A8FB PUSH20 0xFFFFFFFFFFFFFFFFFFFFFFFFFFFFFFFFFFFFFFFF AND PUSH4 0x50D25BCD PUSH1 0x40 MLOAD DUP2 PUSH4 0xFFFFFFFF AND PUSH1 0xE0 SHL DUP2 MSTORE PUSH1 0x4 ADD PUSH1 0x20 PUSH1 0x40 MLOAD DUP1 DUP4 SUB DUP2 DUP7 DUP1 EXTCODESIZE ISZERO DUP1 ISZERO PUSH2 0xCAD JUMPI PUSH1 0x0 DUP1 REVERT JUMPDEST POP GAS STATICCALL ISZERO DUP1 ISZERO PUSH2 0xCC1 JUMPI RETURNDATASIZE PUSH1 0x0 DUP1 RETURNDATACOPY RETURNDATASIZE PUSH1 0x0 REVERT JUMPDEST POP POP POP POP PUSH1 0x40 MLOAD RETURNDATASIZE PUSH1 0x1F NOT PUSH1 0x1F DUP3 ADD AND DUP3 ADD DUP1 PUSH1 0x40 MSTORE POP DUP2 ADD SWAP1 PUSH2 0xCE5 SWAP2 SWAP1 PUSH2 0x1476 JUMP JUMPDEST PUSH2 0xD77 PUSH2 0xD4C PUSH2 0xD47 PUSH8 0xDE0B6B3A7640000 PUSH1 0x40 MLOAD DUP1 PUSH1 0x20 ADD PUSH1 0x40 MSTORE DUP1 DUP12 PUSH4 0xFFFFFFFF AND PUSH1 0x0 DUP1 ADD SLOAD DUP13 SUB DUP2 PUSH2 0xD17 JUMPI INVALID JUMPDEST DIV PUSH28 0xFFFFFFFFFFFFFFFFFFFFFFFFFFFFFFFFFFFFFFFFFFFFFFFFFFFFFFFF AND DUP2 MSTORE POP PUSH2 0x10E6 SWAP1 SWAP2 SWAP1 PUSH4 0xFFFFFFFF AND JUMP JUMPDEST PUSH2 0x11A6 JUMP JUMPDEST PUSH18 0xFFFFFFFFFFFFFFFFFFFFFFFFFFFFFFFFFFFF AND PUSH8 0xDE0B6B3A7640000 PUSH2 0x1084 SWAP1 SWAP2 SWAP1 PUSH4 0xFFFFFFFF AND JUMP JUMPDEST PUSH2 0x1084 SWAP1 SWAP2 SWAP1 PUSH4 0xFFFFFFFF AND JUMP JUMPDEST DUP2 PUSH2 0xD8C JUMPI INVALID JUMPDEST DIV PUSH23 0x10B46C6CDD6E3E0828F4DB456FF0C8EA0000000000000 DUP2 PUSH2 0xDAC JUMPI INVALID JUMPDEST DIV SWAP1 POP PUSH1 0x1 DUP2 DUP1 PUSH18 0xFFFFFFFFFFFFFFFFFFFFFFFFFFFFFFFFFFFF AND SWAP1 POP SWAP6 POP SWAP6 POP POP POP POP POP JUMPDEST SWAP3 POP SWAP3 SWAP1 POP JUMP JUMPDEST PUSH1 0x0 DUP1 PUSH1 0x0 ADD SLOAD SWAP1 DUP1 PUSH1 0x1 ADD PUSH1 0x0 SWAP1 SLOAD SWAP1 PUSH2 0x100 EXP SWAP1 DIV PUSH4 0xFFFFFFFF AND SWAP1 DUP1 PUSH1 0x1 ADD PUSH1 0x4 SWAP1 SLOAD SWAP1 PUSH2 0x100 EXP SWAP1 DIV PUSH18 0xFFFFFFFFFFFFFFFFFFFFFFFFFFFFFFFFFFFF AND SWAP1 POP DUP4 JUMP JUMPDEST PUSH2 0xE27 PUSH2 0x133A JUMP JUMPDEST PUSH1 0x0 DUP3 GT PUSH2 0xE6A JUMPI PUSH1 0x40 MLOAD PUSH32 0x8C379A000000000000000000000000000000000000000000000000000000000 DUP2 MSTORE PUSH1 0x4 ADD PUSH2 0xE61 SWAP1 PUSH2 0x1848 JUMP JUMPDEST PUSH1 0x40 MLOAD DUP1 SWAP2 SUB SWAP1 REVERT JUMPDEST PUSH1 0x0 DUP4 EQ ISZERO PUSH2 0xEA8 JUMPI PUSH1 0x40 MLOAD DUP1 PUSH1 0x20 ADD PUSH1 0x40 MSTORE DUP1 PUSH1 0x0 PUSH28 0xFFFFFFFFFFFFFFFFFFFFFFFFFFFFFFFFFFFFFFFFFFFFFFFFFFFFFFFF AND DUP2 MSTORE POP SWAP1 POP PUSH2 0x107E JUMP JUMPDEST PUSH32 0xFFFFFFFFFFFFFFFFFFFFFFFFFFFFFFFFFFFFFFFFFFFFFFFFFFFFFFFFFFFFFFFF PUSH18 0xFFFFFFFFFFFFFFFFFFFFFFFFFFFFFFFFFFFF AND DUP4 GT PUSH2 0xFAE JUMPI PUSH1 0x0 DUP3 PUSH1 0x70 PUSH1 0xFF AND DUP6 SWAP1 SHL DUP2 PUSH2 0xEF5 JUMPI INVALID JUMPDEST DIV SWAP1 POP PUSH32 0xFFFFFFFFFFFFFFFFFFFFFFFFFFFFFFFFFFFFFFFFFFFFFFFFFFFFFFFFFFFFFFFF PUSH28 0xFFFFFFFFFFFFFFFFFFFFFFFFFFFFFFFFFFFFFFFFFFFFFFFFFFFFFFFF AND DUP2 GT ISZERO PUSH2 0xF79 JUMPI PUSH1 0x40 MLOAD PUSH32 0x8C379A000000000000000000000000000000000000000000000000000000000 DUP2 MSTORE PUSH1 0x4 ADD PUSH2 0xF70 SWAP1 PUSH2 0x1828 JUMP JUMPDEST PUSH1 0x40 MLOAD DUP1 SWAP2 SUB SWAP1 REVERT JUMPDEST PUSH1 0x40 MLOAD DUP1 PUSH1 0x20 ADD PUSH1 0x40 MSTORE DUP1 DUP3 PUSH28 0xFFFFFFFFFFFFFFFFFFFFFFFFFFFFFFFFFFFFFFFFFFFFFFFFFFFFFFFF AND DUP2 MSTORE POP SWAP2 POP POP PUSH2 0x107E JUMP JUMPDEST PUSH1 0x0 PUSH2 0xFCA DUP5 PUSH15 0x10000000000000000000000000000 DUP6 PUSH2 0x11BB JUMP JUMPDEST SWAP1 POP PUSH32 0xFFFFFFFFFFFFFFFFFFFFFFFFFFFFFFFFFFFFFFFFFFFFFFFFFFFFFFFFFFFFFFFF PUSH28 0xFFFFFFFFFFFFFFFFFFFFFFFFFFFFFFFFFFFFFFFFFFFFFFFFFFFFFFFF AND DUP2 GT ISZERO PUSH2 0x104D JUMPI PUSH1 0x40 MLOAD PUSH32 0x8C379A000000000000000000000000000000000000000000000000000000000 DUP2 MSTORE PUSH1 0x4 ADD PUSH2 0x1044 SWAP1 PUSH2 0x1828 JUMP JUMPDEST PUSH1 0x40 MLOAD DUP1 SWAP2 SUB SWAP1 REVERT JUMPDEST PUSH1 0x40 MLOAD DUP1 PUSH1 0x20 ADD PUSH1 0x40 MSTORE DUP1 DUP3 PUSH28 0xFFFFFFFFFFFFFFFFFFFFFFFFFFFFFFFFFFFFFFFFFFFFFFFFFFFFFFFF AND DUP2 MSTORE POP SWAP2 POP POP JUMPDEST SWAP3 SWAP2 POP POP JUMP JUMPDEST PUSH1 0x0 DUP1 DUP3 EQ DUP1 PUSH2 0x10A1 JUMPI POP DUP3 DUP3 DUP4 DUP6 MUL SWAP3 POP DUP3 DUP2 PUSH2 0x109E JUMPI INVALID JUMPDEST DIV EQ JUMPDEST PUSH2 0x10E0 JUMPI PUSH1 0x40 MLOAD PUSH32 0x8C379A000000000000000000000000000000000000000000000000000000000 DUP2 MSTORE PUSH1 0x4 ADD PUSH2 0x10D7 SWAP1 PUSH2 0x1868 JUMP JUMPDEST PUSH1 0x40 MLOAD DUP1 SWAP2 SUB SWAP1 REVERT JUMPDEST SWAP3 SWAP2 POP POP JUMP JUMPDEST PUSH2 0x10EE PUSH2 0x136B JUMP JUMPDEST PUSH1 0x0 DUP1 DUP4 EQ DUP1 PUSH2 0x114F JUMPI POP DUP4 PUSH1 0x0 ADD MLOAD PUSH28 0xFFFFFFFFFFFFFFFFFFFFFFFFFFFFFFFFFFFFFFFFFFFFFFFFFFFFFFFF AND DUP4 DUP5 DUP7 PUSH1 0x0 ADD MLOAD PUSH28 0xFFFFFFFFFFFFFFFFFFFFFFFFFFFFFFFFFFFFFFFFFFFFFFFFFFFFFFFF AND MUL SWAP3 POP DUP3 DUP2 PUSH2 0x114C JUMPI INVALID JUMPDEST DIV EQ JUMPDEST PUSH2 0x118E JUMPI PUSH1 0x40 MLOAD PUSH32 0x8C379A000000000000000000000000000000000000000000000000000000000 DUP2 MSTORE PUSH1 0x4 ADD PUSH2 0x1185 SWAP1 PUSH2 0x17E8 JUMP JUMPDEST PUSH1 0x40 MLOAD DUP1 SWAP2 SUB SWAP1 REVERT JUMPDEST PUSH1 0x40 MLOAD DUP1 PUSH1 0x20 ADD PUSH1 0x40 MSTORE DUP1 DUP3 DUP2 MSTORE POP SWAP2 POP POP SWAP3 SWAP2 POP POP JUMP JUMPDEST PUSH1 0x0 PUSH1 0x70 PUSH1 0xFF AND DUP3 PUSH1 0x0 ADD MLOAD SWAP1 SHR SWAP1 POP SWAP2 SWAP1 POP JUMP JUMPDEST PUSH1 0x0 DUP1 PUSH1 0x0 PUSH2 0x11CA DUP7 DUP7 PUSH2 0x124A JUMP JUMPDEST SWAP2 POP SWAP2 POP PUSH1 0x0 DUP5 DUP1 PUSH2 0x11D8 JUMPI INVALID JUMPDEST DUP7 DUP9 MULMOD SWAP1 POP DUP3 DUP2 GT ISZERO PUSH2 0x11EC JUMPI PUSH1 0x1 DUP3 SUB SWAP2 POP JUMPDEST DUP1 DUP4 SUB SWAP3 POP DUP5 DUP3 LT PUSH2 0x1233 JUMPI PUSH1 0x40 MLOAD PUSH32 0x8C379A000000000000000000000000000000000000000000000000000000000 DUP2 MSTORE PUSH1 0x4 ADD PUSH2 0x122A SWAP1 PUSH2 0x1808 JUMP JUMPDEST PUSH1 0x40 MLOAD DUP1 SWAP2 SUB SWAP1 REVERT JUMPDEST PUSH2 0x123E DUP4 DUP4 DUP8 PUSH2 0x129D JUMP JUMPDEST SWAP4 POP POP POP POP SWAP4 SWAP3 POP POP POP JUMP JUMPDEST PUSH1 0x0 DUP1 PUSH1 0x0 PUSH32 0xFFFFFFFFFFFFFFFFFFFFFFFFFFFFFFFFFFFFFFFFFFFFFFFFFFFFFFFFFFFFFFFF DUP1 PUSH2 0x1277 JUMPI INVALID JUMPDEST DUP5 DUP7 MULMOD SWAP1 POP DUP4 DUP6 MUL SWAP3 POP DUP3 DUP2 SUB SWAP2 POP DUP3 DUP2 LT ISZERO PUSH2 0x1295 JUMPI PUSH1 0x1 DUP3 SUB SWAP2 POP JUMPDEST POP SWAP3 POP SWAP3 SWAP1 POP JUMP JUMPDEST PUSH1 0x0 DUP1 DUP3 PUSH1 0x0 SUB DUP4 AND SWAP1 POP DUP1 DUP4 DUP2 PUSH2 0x12B1 JUMPI INVALID JUMPDEST DIV SWAP3 POP DUP1 DUP6 DUP2 PUSH2 0x12BD JUMPI INVALID JUMPDEST DIV SWAP5 POP PUSH1 0x1 DUP2 DUP3 PUSH1 0x0 SUB DUP2 PUSH2 0x12CE JUMPI INVALID JUMPDEST DIV ADD DUP5 MUL DUP6 ADD SWAP5 POP PUSH1 0x0 PUSH1 0x1 SWAP1 POP DUP1 DUP5 MUL PUSH1 0x2 SUB DUP2 MUL SWAP1 POP DUP1 DUP5 MUL PUSH1 0x2 SUB DUP2 MUL SWAP1 POP DUP1 DUP5 MUL PUSH1 0x2 SUB DUP2 MUL SWAP1 POP DUP1 DUP5 MUL PUSH1 0x2 SUB DUP2 MUL SWAP1 POP DUP1 DUP5 MUL PUSH1 0x2 SUB DUP2 MUL SWAP1 POP DUP1 DUP5 MUL PUSH1 0x2 SUB DUP2 MUL SWAP1 POP DUP1 DUP5 MUL PUSH1 0x2 SUB DUP2 MUL SWAP1 POP DUP1 DUP5 MUL PUSH1 0x2 SUB DUP2 MUL SWAP1 POP DUP1 DUP7 MUL SWAP3 POP POP POP SWAP4 SWAP3 POP POP POP JUMP JUMPDEST PUSH1 0x40 MLOAD DUP1 PUSH1 0x20 ADD PUSH1 0x40 MSTORE DUP1 PUSH1 0x0 PUSH28 0xFFFFFFFFFFFFFFFFFFFFFFFFFFFFFFFFFFFFFFFFFFFFFFFFFFFFFFFF AND DUP2 MSTORE POP SWAP1 JUMP JUMPDEST PUSH1 0x40 MLOAD DUP1 PUSH1 0x20 ADD PUSH1 0x40 MSTORE DUP1 PUSH1 0x0 DUP2 MSTORE POP SWAP1 JUMP JUMPDEST PUSH1 0x0 DUP1 DUP4 PUSH1 0x1F DUP5 ADD SLT PUSH2 0x1390 JUMPI PUSH1 0x0 DUP1 REVERT JUMPDEST DUP3 CALLDATALOAD SWAP1 POP PUSH8 0xFFFFFFFFFFFFFFFF DUP2 GT ISZERO PUSH2 0x13A9 JUMPI PUSH1 0x0 DUP1 REVERT JUMPDEST PUSH1 0x20 DUP4 ADD SWAP2 POP DUP4 PUSH1 0x1 DUP3 MUL DUP4 ADD GT ISZERO PUSH2 0x13C1 JUMPI PUSH1 0x0 DUP1 REVERT JUMPDEST SWAP3 POP SWAP3 SWAP1 POP JUMP JUMPDEST PUSH1 0x0 DUP2 MLOAD SWAP1 POP PUSH2 0x13D7 DUP2 PUSH2 0x1A40 JUMP JUMPDEST SWAP3 SWAP2 POP POP JUMP JUMPDEST PUSH1 0x0 DUP2 MLOAD SWAP1 POP PUSH2 0x13EC DUP2 PUSH2 0x1A57 JUMP JUMPDEST SWAP3 SWAP2 POP POP JUMP JUMPDEST PUSH1 0x0 DUP2 CALLDATALOAD SWAP1 POP PUSH2 0x1401 DUP2 PUSH2 0x1A6E JUMP JUMPDEST SWAP3 SWAP2 POP POP JUMP JUMPDEST PUSH1 0x0 DUP2 MLOAD SWAP1 POP PUSH2 0x1416 DUP2 PUSH2 0x1A6E JUMP JUMPDEST SWAP3 SWAP2 POP POP JUMP JUMPDEST PUSH1 0x0 DUP2 MLOAD SWAP1 POP PUSH2 0x142B DUP2 PUSH2 0x1A85 JUMP JUMPDEST SWAP3 SWAP2 POP POP JUMP JUMPDEST PUSH1 0x0 DUP1 PUSH1 0x20 DUP4 DUP6 SUB SLT ISZERO PUSH2 0x1444 JUMPI PUSH1 0x0 DUP1 REVERT JUMPDEST PUSH1 0x0 DUP4 ADD CALLDATALOAD PUSH8 0xFFFFFFFFFFFFFFFF DUP2 GT ISZERO PUSH2 0x145E JUMPI PUSH1 0x0 DUP1 REVERT JUMPDEST PUSH2 0x146A DUP6 DUP3 DUP7 ADD PUSH2 0x137E JUMP JUMPDEST SWAP3 POP SWAP3 POP POP SWAP3 POP SWAP3 SWAP1 POP JUMP JUMPDEST PUSH1 0x0 PUSH1 0x20 DUP3 DUP5 SUB SLT ISZERO PUSH2 0x1488 JUMPI PUSH1 0x0 DUP1 REVERT JUMPDEST PUSH1 0x0 PUSH2 0x1496 DUP5 DUP3 DUP6 ADD PUSH2 0x13C8 JUMP JUMPDEST SWAP2 POP POP SWAP3 SWAP2 POP POP JUMP JUMPDEST PUSH1 0x0 DUP1 PUSH1 0x0 PUSH1 0x60 DUP5 DUP7 SUB SLT ISZERO PUSH2 0x14B4 JUMPI PUSH1 0x0 DUP1 REVERT JUMPDEST PUSH1 0x0 PUSH2 0x14C2 DUP7 DUP3 DUP8 ADD PUSH2 0x13DD JUMP JUMPDEST SWAP4 POP POP PUSH1 0x20 PUSH2 0x14D3 DUP7 DUP3 DUP8 ADD PUSH2 0x13DD JUMP JUMPDEST SWAP3 POP POP PUSH1 0x40 PUSH2 0x14E4 DUP7 DUP3 DUP8 ADD PUSH2 0x141C JUMP JUMPDEST SWAP2 POP POP SWAP3 POP SWAP3 POP SWAP3 JUMP JUMPDEST PUSH1 0x0 PUSH1 0x20 DUP3 DUP5 SUB SLT ISZERO PUSH2 0x1500 JUMPI PUSH1 0x0 DUP1 REVERT JUMPDEST PUSH1 0x0 PUSH2 0x150E DUP5 DUP3 DUP6 ADD PUSH2 0x13F2 JUMP JUMPDEST SWAP2 POP POP SWAP3 SWAP2 POP POP JUMP JUMPDEST PUSH1 0x0 PUSH1 0x20 DUP3 DUP5 SUB SLT ISZERO PUSH2 0x1529 JUMPI PUSH1 0x0 DUP1 REVERT JUMPDEST PUSH1 0x0 PUSH2 0x1537 DUP5 DUP3 DUP6 ADD PUSH2 0x1407 JUMP JUMPDEST SWAP2 POP POP SWAP3 SWAP2 POP POP JUMP JUMPDEST PUSH2 0x1549 DUP2 PUSH2 0x18F6 JUMP JUMPDEST DUP3 MSTORE POP POP JUMP JUMPDEST PUSH2 0x1558 DUP2 PUSH2 0x197E JUMP JUMPDEST DUP3 MSTORE POP POP JUMP JUMPDEST PUSH2 0x1567 DUP2 PUSH2 0x19A2 JUMP JUMPDEST DUP3 MSTORE POP POP JUMP JUMPDEST PUSH2 0x1576 DUP2 PUSH2 0x19C6 JUMP JUMPDEST DUP3 MSTORE POP POP JUMP JUMPDEST PUSH2 0x1585 DUP2 PUSH2 0x19EA JUMP JUMPDEST DUP3 MSTORE POP POP JUMP JUMPDEST PUSH1 0x0 PUSH2 0x1596 DUP3 PUSH2 0x18DA JUMP JUMPDEST PUSH2 0x15A0 DUP2 DUP6 PUSH2 0x18E5 JUMP JUMPDEST SWAP4 POP PUSH2 0x15B0 DUP2 DUP6 PUSH1 0x20 DUP7 ADD PUSH2 0x19FC JUMP JUMPDEST PUSH2 0x15B9 DUP2 PUSH2 0x1A2F JUMP JUMPDEST DUP5 ADD SWAP2 POP POP SWAP3 SWAP2 POP POP JUMP JUMPDEST PUSH1 0x0 PUSH2 0x15D1 PUSH1 0x19 DUP4 PUSH2 0x18E5 JUMP JUMPDEST SWAP2 POP PUSH32 0x4669786564506F696E743A3A6D756C3A206F766572666C6F7700000000000000 PUSH1 0x0 DUP4 ADD MSTORE PUSH1 0x20 DUP3 ADD SWAP1 POP SWAP2 SWAP1 POP JUMP JUMPDEST PUSH1 0x0 PUSH2 0x1611 PUSH1 0x1A DUP4 PUSH2 0x18E5 JUMP JUMPDEST SWAP2 POP PUSH32 0x46756C6C4D6174683A3A6D756C4469763A206F766572666C6F77000000000000 PUSH1 0x0 DUP4 ADD MSTORE PUSH1 0x20 DUP3 ADD SWAP1 POP SWAP2 SWAP1 POP JUMP JUMPDEST PUSH1 0x0 PUSH2 0x1651 PUSH1 0x1E DUP4 PUSH2 0x18E5 JUMP JUMPDEST SWAP2 POP PUSH32 0x4669786564506F696E743A3A6672616374696F6E3A206F766572666C6F770000 PUSH1 0x0 DUP4 ADD MSTORE PUSH1 0x20 DUP3 ADD SWAP1 POP SWAP2 SWAP1 POP JUMP JUMPDEST PUSH1 0x0 PUSH2 0x1691 PUSH1 0x1E DUP4 PUSH2 0x18E5 JUMP JUMPDEST SWAP2 POP PUSH32 0x4669786564506F696E743A3A6672616374696F6E3A2064697620627920300000 PUSH1 0x0 DUP4 ADD MSTORE PUSH1 0x20 DUP3 ADD SWAP1 POP SWAP2 SWAP1 POP JUMP JUMPDEST PUSH1 0x0 PUSH2 0x16D1 PUSH1 0x18 DUP4 PUSH2 0x18E5 JUMP JUMPDEST SWAP2 POP PUSH32 0x426F72696E674D6174683A204D756C204F766572666C6F770000000000000000 PUSH1 0x0 DUP4 ADD MSTORE PUSH1 0x20 DUP3 ADD SWAP1 POP SWAP2 SWAP1 POP JUMP JUMPDEST PUSH2 0x170D DUP2 PUSH2 0x1926 JUMP JUMPDEST DUP3 MSTORE POP POP JUMP JUMPDEST PUSH2 0x171C DUP2 PUSH2 0x1964 JUMP JUMPDEST DUP3 MSTORE POP POP JUMP JUMPDEST PUSH2 0x172B DUP2 PUSH2 0x196E JUMP JUMPDEST DUP3 MSTORE POP POP JUMP JUMPDEST PUSH1 0x0 PUSH1 0x40 DUP3 ADD SWAP1 POP PUSH2 0x1746 PUSH1 0x0 DUP4 ADD DUP6 PUSH2 0x1540 JUMP JUMPDEST PUSH2 0x1753 PUSH1 0x20 DUP4 ADD DUP5 PUSH2 0x1713 JUMP JUMPDEST SWAP4 SWAP3 POP POP POP JUMP JUMPDEST PUSH1 0x0 PUSH1 0x20 DUP3 ADD SWAP1 POP PUSH2 0x176F PUSH1 0x0 DUP4 ADD DUP5 PUSH2 0x154F JUMP JUMPDEST SWAP3 SWAP2 POP POP JUMP JUMPDEST PUSH1 0x0 PUSH1 0x20 DUP3 ADD SWAP1 POP PUSH2 0x178A PUSH1 0x0 DUP4 ADD DUP5 PUSH2 0x155E JUMP JUMPDEST SWAP3 SWAP2 POP POP JUMP JUMPDEST PUSH1 0x0 PUSH1 0x20 DUP3 ADD SWAP1 POP PUSH2 0x17A5 PUSH1 0x0 DUP4 ADD DUP5 PUSH2 0x156D JUMP JUMPDEST SWAP3 SWAP2 POP POP JUMP JUMPDEST PUSH1 0x0 PUSH1 0x20 DUP3 ADD SWAP1 POP PUSH2 0x17C0 PUSH1 0x0 DUP4 ADD DUP5 PUSH2 0x157C JUMP JUMPDEST SWAP3 SWAP2 POP POP JUMP JUMPDEST PUSH1 0x0 PUSH1 0x20 DUP3 ADD SWAP1 POP DUP2 DUP2 SUB PUSH1 0x0 DUP4 ADD MSTORE PUSH2 0x17E0 DUP2 DUP5 PUSH2 0x158B JUMP JUMPDEST SWAP1 POP SWAP3 SWAP2 POP POP JUMP JUMPDEST PUSH1 0x0 PUSH1 0x20 DUP3 ADD SWAP1 POP DUP2 DUP2 SUB PUSH1 0x0 DUP4 ADD MSTORE PUSH2 0x1801 DUP2 PUSH2 0x15C4 JUMP JUMPDEST SWAP1 POP SWAP2 SWAP1 POP JUMP JUMPDEST PUSH1 0x0 PUSH1 0x20 DUP3 ADD SWAP1 POP DUP2 DUP2 SUB PUSH1 0x0 DUP4 ADD MSTORE PUSH2 0x1821 DUP2 PUSH2 0x1604 JUMP JUMPDEST SWAP1 POP SWAP2 SWAP1 POP JUMP JUMPDEST PUSH1 0x0 PUSH1 0x20 DUP3 ADD SWAP1 POP DUP2 DUP2 SUB PUSH1 0x0 DUP4 ADD MSTORE PUSH2 0x1841 DUP2 PUSH2 0x1644 JUMP JUMPDEST SWAP1 POP SWAP2 SWAP1 POP JUMP JUMPDEST PUSH1 0x0 PUSH1 0x20 DUP3 ADD SWAP1 POP DUP2 DUP2 SUB PUSH1 0x0 DUP4 ADD MSTORE PUSH2 0x1861 DUP2 PUSH2 0x1684 JUMP JUMPDEST SWAP1 POP SWAP2 SWAP1 POP JUMP JUMPDEST PUSH1 0x0 PUSH1 0x20 DUP3 ADD SWAP1 POP DUP2 DUP2 SUB PUSH1 0x0 DUP4 ADD MSTORE PUSH2 0x1881 DUP2 PUSH2 0x16C4 JUMP JUMPDEST SWAP1 POP SWAP2 SWAP1 POP JUMP JUMPDEST PUSH1 0x0 PUSH1 0x20 DUP3 ADD SWAP1 POP PUSH2 0x189D PUSH1 0x0 DUP4 ADD DUP5 PUSH2 0x1713 JUMP JUMPDEST SWAP3 SWAP2 POP POP JUMP JUMPDEST PUSH1 0x0 PUSH1 0x60 DUP3 ADD SWAP1 POP PUSH2 0x18B8 PUSH1 0x0 DUP4 ADD DUP7 PUSH2 0x1713 JUMP JUMPDEST PUSH2 0x18C5 PUSH1 0x20 DUP4 ADD DUP6 PUSH2 0x1722 JUMP JUMPDEST PUSH2 0x18D2 PUSH1 0x40 DUP4 ADD DUP5 PUSH2 0x1704 JUMP JUMPDEST SWAP5 SWAP4 POP POP POP POP JUMP JUMPDEST PUSH1 0x0 DUP2 MLOAD SWAP1 POP SWAP2 SWAP1 POP JUMP JUMPDEST PUSH1 0x0 DUP3 DUP3 MSTORE PUSH1 0x20 DUP3 ADD SWAP1 POP SWAP3 SWAP2 POP POP JUMP JUMPDEST PUSH1 0x0 DUP2 ISZERO ISZERO SWAP1 POP SWAP2 SWAP1 POP JUMP JUMPDEST PUSH1 0x0 DUP2 SWAP1 POP SWAP2 SWAP1 POP JUMP JUMPDEST PUSH1 0x0 PUSH14 0xFFFFFFFFFFFFFFFFFFFFFFFFFFFF DUP3 AND SWAP1 POP SWAP2 SWAP1 POP JUMP JUMPDEST PUSH1 0x0 PUSH18 0xFFFFFFFFFFFFFFFFFFFFFFFFFFFFFFFFFFFF DUP3 AND SWAP1 POP SWAP2 SWAP1 POP JUMP JUMPDEST PUSH1 0x0 PUSH20 0xFFFFFFFFFFFFFFFFFFFFFFFFFFFFFFFFFFFFFFFF DUP3 AND SWAP1 POP SWAP2 SWAP1 POP JUMP JUMPDEST PUSH1 0x0 DUP2 SWAP1 POP SWAP2 SWAP1 POP JUMP JUMPDEST PUSH1 0x0 PUSH4 0xFFFFFFFF DUP3 AND SWAP1 POP SWAP2 SWAP1 POP JUMP JUMPDEST PUSH1 0x0 PUSH2 0x1989 DUP3 PUSH2 0x1990 JUMP JUMPDEST SWAP1 POP SWAP2 SWAP1 POP JUMP JUMPDEST PUSH1 0x0 PUSH2 0x199B DUP3 PUSH2 0x1944 JUMP JUMPDEST SWAP1 POP SWAP2 SWAP1 POP JUMP JUMPDEST PUSH1 0x0 PUSH2 0x19AD DUP3 PUSH2 0x19B4 JUMP JUMPDEST SWAP1 POP SWAP2 SWAP1 POP JUMP JUMPDEST PUSH1 0x0 PUSH2 0x19BF DUP3 PUSH2 0x1944 JUMP JUMPDEST SWAP1 POP SWAP2 SWAP1 POP JUMP JUMPDEST PUSH1 0x0 PUSH2 0x19D1 DUP3 PUSH2 0x19D8 JUMP JUMPDEST SWAP1 POP SWAP2 SWAP1 POP JUMP JUMPDEST PUSH1 0x0 PUSH2 0x19E3 DUP3 PUSH2 0x1944 JUMP JUMPDEST SWAP1 POP SWAP2 SWAP1 POP JUMP JUMPDEST PUSH1 0x0 PUSH2 0x19F5 DUP3 PUSH2 0x1964 JUMP JUMPDEST SWAP1 POP SWAP2 SWAP1 POP JUMP JUMPDEST PUSH1 0x0 JUMPDEST DUP4 DUP2 LT ISZERO PUSH2 0x1A1A JUMPI DUP1 DUP3 ADD MLOAD DUP2 DUP5 ADD MSTORE PUSH1 0x20 DUP2 ADD SWAP1 POP PUSH2 0x19FF JUMP JUMPDEST DUP4 DUP2 GT ISZERO PUSH2 0x1A29 JUMPI PUSH1 0x0 DUP5 DUP5 ADD MSTORE JUMPDEST POP POP POP POP JUMP JUMPDEST PUSH1 0x0 PUSH1 0x1F NOT PUSH1 0x1F DUP4 ADD AND SWAP1 POP SWAP2 SWAP1 POP JUMP JUMPDEST PUSH2 0x1A49 DUP2 PUSH2 0x1902 JUMP JUMPDEST DUP2 EQ PUSH2 0x1A54 JUMPI PUSH1 0x0 DUP1 REVERT JUMPDEST POP JUMP JUMPDEST PUSH2 0x1A60 DUP2 PUSH2 0x190C JUMP JUMPDEST DUP2 EQ PUSH2 0x1A6B JUMPI PUSH1 0x0 DUP1 REVERT JUMPDEST POP JUMP JUMPDEST PUSH2 0x1A77 DUP2 PUSH2 0x1964 JUMP JUMPDEST DUP2 EQ PUSH2 0x1A82 JUMPI PUSH1 0x0 DUP1 REVERT JUMPDEST POP JUMP JUMPDEST PUSH2 0x1A8E DUP2 PUSH2 0x196E JUMP JUMPDEST DUP2 EQ PUSH2 0x1A99 JUMPI PUSH1 0x0 DUP1 REVERT JUMPDEST POP JUMP INVALID LOG2 PUSH5 0x6970667358 0x22 SLT KECCAK256 PUSH16 0xF2A5B22BBBD75C5DC9BBC138A72A8ACD PUSH19 0xBCD2A15D15428E039F42EFAF16FC64736F6C63 NUMBER STOP MOD 0xC STOP CALLER "
		},
		"gasEstimates": {
			"creation": {
				"codeDepositCost": "1373200",
				"executionCost": "1431",
				"totalCost": "1374631"
			},
			"external": {
				"MIM_ICY()": "444",
				"MIM_USD()": "422",
				"PERIOD()": "396",
				"WGLAZE()": "487",
				"_get(uint256)": "infinite",
				"get(bytes)": "infinite",
				"name(bytes)": "infinite",
				"pairInfo()": "3211",
				"peek(bytes)": "infinite",
				"peekSpot(bytes)": "infinite",
				"symbol(bytes)": "infinite"
			}
		},
		"methodIdentifiers": {
			"MIM_ICY()": "451931a1",
			"MIM_USD()": "3938471f",
			"PERIOD()": "b4d1d795",
			"WGLAZE()": "e035ba52",
			"_get(uint256)": "8ec828ed",
			"get(bytes)": "d6d7d525",
			"name(bytes)": "d568866c",
			"pairInfo()": "fc2a5b1d",
			"peek(bytes)": "eeb8a8d3",
			"peekSpot(bytes)": "d39bbef0",
			"symbol(bytes)": "c699c4d6"
		}
	},
	"abi": [
		{
			"inputs": [],
			"name": "MIM_ICY",
			"outputs": [
				{
					"internalType": "contract IUniswapV2Pair",
					"name": "",
					"type": "address"
				}
			],
			"stateMutability": "view",
			"type": "function"
		},
		{
			"inputs": [],
			"name": "MIM_USD",
			"outputs": [
				{
					"internalType": "contract IAggregator",
					"name": "",
					"type": "address"
				}
			],
			"stateMutability": "view",
			"type": "function"
		},
		{
			"inputs": [],
			"name": "PERIOD",
			"outputs": [
				{
					"internalType": "uint256",
					"name": "",
					"type": "uint256"
				}
			],
			"stateMutability": "view",
			"type": "function"
		},
		{
			"inputs": [],
			"name": "WGLAZE",
			"outputs": [
				{
					"internalType": "contract IWGLAZE",
					"name": "",
					"type": "address"
				}
			],
			"stateMutability": "view",
			"type": "function"
		},
		{
			"inputs": [
				{
					"internalType": "uint256",
					"name": "blockTimestamp",
					"type": "uint256"
				}
			],
			"name": "_get",
			"outputs": [
				{
					"internalType": "uint256",
					"name": "",
					"type": "uint256"
				}
			],
			"stateMutability": "view",
			"type": "function"
		},
		{
			"inputs": [
				{
					"internalType": "bytes",
					"name": "data",
					"type": "bytes"
				}
			],
			"name": "get",
			"outputs": [
				{
					"internalType": "bool",
					"name": "",
					"type": "bool"
				},
				{
					"internalType": "uint256",
					"name": "",
					"type": "uint256"
				}
			],
			"stateMutability": "nonpayable",
			"type": "function"
		},
		{
			"inputs": [
				{
					"internalType": "bytes",
					"name": "",
					"type": "bytes"
				}
			],
			"name": "name",
			"outputs": [
				{
					"internalType": "string",
					"name": "",
					"type": "string"
				}
			],
			"stateMutability": "view",
			"type": "function"
		},
		{
			"inputs": [],
			"name": "pairInfo",
			"outputs": [
				{
					"internalType": "uint256",
					"name": "priceCumulativeLast",
					"type": "uint256"
				},
				{
					"internalType": "uint32",
					"name": "blockTimestampLast",
					"type": "uint32"
				},
				{
					"internalType": "uint144",
					"name": "priceAverage",
					"type": "uint144"
				}
			],
			"stateMutability": "view",
			"type": "function"
		},
		{
			"inputs": [
				{
					"internalType": "bytes",
					"name": "data",
					"type": "bytes"
				}
			],
			"name": "peek",
			"outputs": [
				{
					"internalType": "bool",
					"name": "",
					"type": "bool"
				},
				{
					"internalType": "uint256",
					"name": "",
					"type": "uint256"
				}
			],
			"stateMutability": "view",
			"type": "function"
		},
		{
			"inputs": [
				{
					"internalType": "bytes",
					"name": "data",
					"type": "bytes"
				}
			],
			"name": "peekSpot",
			"outputs": [
				{
					"internalType": "uint256",
					"name": "rate",
					"type": "uint256"
				}
			],
			"stateMutability": "view",
			"type": "function"
		},
		{
			"inputs": [
				{
					"internalType": "bytes",
					"name": "",
					"type": "bytes"
				}
			],
			"name": "symbol",
			"outputs": [
				{
					"internalType": "string",
					"name": "",
					"type": "string"
				}
			],
			"stateMutability": "view",
			"type": "function"
		}
	]
}